:100000000C9434000C943E000C943E000C943E0082
:100010000C943E000C943E000C943E000C943E0068
:100020000C943E000C943E000C943E000C943E0058
:100030000C943E000C943E000C943E000C943E0048
:100040000C943E000C943E000C943E000C943E0038
:100050000C943E000C943E000C943E000C943E0028
:100060000C943E000C943E0011241FBECFEFD8E04C
:10007000DEBFCDBF0E9440000C9465000C940000D0
:100080008AB18AB9259A40E289B1382F3470282F75
:100090002072982F987139F021110DC08872883222
:1000A00021F4332311F045B9EFCF983111F4311118
:1000B000FACF15B8E9CF84FFF6CF982F9C7099F34B
:0E00C00088728832A1F315B8DFCFF894FFCF15
:00000001FF
